{
  "contractName": "FiatTokenV1",
  "abi": [
    {
      "constant": true,
      "inputs": [],
      "name": "name",
      "outputs": [
        {
          "name": "",
          "type": "string"
        }
      ],
      "payable": false,
      "stateMutability": "view",
      "type": "function"
    },
    {
      "constant": false,
      "inputs": [
        {
          "name": "_account",
          "type": "address"
        }
      ],
      "name": "unBlacklist",
      "outputs": [],
      "payable": false,
      "stateMutability": "nonpayable",
      "type": "function"
    },
    {
      "constant": true,
      "inputs": [],
      "name": "decimals",
      "outputs": [
        {
          "name": "",
          "type": "uint8"
        }
      ],
      "payable": false,
      "stateMutability": "view",
      "type": "function"
    },
    {
      "constant": true,
      "inputs": [],
      "name": "masterMinter",
      "outputs": [
        {
          "name": "",
          "type": "address"
        }
      ],
      "payable": false,
      "stateMutability": "view",
      "type": "function"
    },
    {
      "constant": false,
      "inputs": [],
      "name": "unpause",
      "outputs": [],
      "payable": false,
      "stateMutability": "nonpayable",
      "type": "function"
    },
    {
      "constant": false,
      "inputs": [
        {
          "name": "_newPauser",
          "type": "address"
        }
      ],
      "name": "updatePauser",
      "outputs": [],
      "payable": false,
      "stateMutability": "nonpayable",
      "type": "function"
    },
    {
      "constant": true,
      "inputs": [],
      "name": "paused",
      "outputs": [
        {
          "name": "",
          "type": "bool"
        }
      ],
      "payable": false,
      "stateMutability": "view",
      "type": "function"
    },
    {
      "constant": false,
      "inputs": [],
      "name": "pause",
      "outputs": [],
      "payable": false,
      "stateMutability": "nonpayable",
      "type": "function"
    },
    {
      "constant": true,
      "inputs": [],
      "name": "owner",
      "outputs": [
        {
          "name": "",
          "type": "address"
        }
      ],
      "payable": false,
      "stateMutability": "view",
      "type": "function"
    },
    {
      "constant": true,
      "inputs": [],
      "name": "symbol",
      "outputs": [
        {
          "name": "",
          "type": "string"
        }
      ],
      "payable": false,
      "stateMutability": "view",
      "type": "function"
    },
    {
      "constant": true,
      "inputs": [],
      "name": "pauser",
      "outputs": [
        {
          "name": "",
          "type": "address"
        }
      ],
      "payable": false,
      "stateMutability": "view",
      "type": "function"
    },
    {
      "constant": false,
      "inputs": [
        {
          "name": "_newBlacklister",
          "type": "address"
        }
      ],
      "name": "updateBlacklister",
      "outputs": [],
      "payable": false,
      "stateMutability": "nonpayable",
      "type": "function"
    },
    {
      "constant": true,
      "inputs": [],
      "name": "blacklister",
      "outputs": [
        {
          "name": "",
          "type": "address"
        }
      ],
      "payable": false,
      "stateMutability": "view",
      "type": "function"
    },
    {
      "constant": true,
      "inputs": [],
      "name": "currency",
      "outputs": [
        {
          "name": "",
          "type": "string"
        }
      ],
      "payable": false,
      "stateMutability": "view",
      "type": "function"
    },
    {
      "constant": false,
      "inputs": [
        {
          "name": "newOwner",
          "type": "address"
        }
      ],
      "name": "transferOwnership",
      "outputs": [],
      "payable": false,
      "stateMutability": "nonpayable",
      "type": "function"
    },
    {
      "constant": false,
      "inputs": [
        {
          "name": "_account",
          "type": "address"
        }
      ],
      "name": "blacklist",
      "outputs": [],
      "payable": false,
      "stateMutability": "nonpayable",
      "type": "function"
    },
    {
      "constant": true,
      "inputs": [
        {
          "name": "_account",
          "type": "address"
        }
      ],
      "name": "isBlacklisted",
      "outputs": [
        {
          "name": "",
          "type": "bool"
        }
      ],
      "payable": false,
      "stateMutability": "view",
      "type": "function"
    },
    {
      "anonymous": false,
      "inputs": [
        {
          "indexed": true,
          "name": "minter",
          "type": "address"
        },
        {
          "indexed": true,
          "name": "to",
          "type": "address"
        },
        {
          "indexed": false,
          "name": "amount",
          "type": "uint256"
        }
      ],
      "name": "Mint",
      "type": "event"
    },
    {
      "anonymous": false,
      "inputs": [
        {
          "indexed": true,
          "name": "burner",
          "type": "address"
        },
        {
          "indexed": false,
          "name": "amount",
          "type": "uint256"
        }
      ],
      "name": "Burn",
      "type": "event"
    },
    {
      "anonymous": false,
      "inputs": [
        {
          "indexed": true,
          "name": "minter",
          "type": "address"
        },
        {
          "indexed": false,
          "name": "minterAllowedAmount",
          "type": "uint256"
        }
      ],
      "name": "MinterConfigured",
      "type": "event"
    },
    {
      "anonymous": false,
      "inputs": [
        {
          "indexed": true,
          "name": "oldMinter",
          "type": "address"
        }
      ],
      "name": "MinterRemoved",
      "type": "event"
    },
    {
      "anonymous": false,
      "inputs": [
        {
          "indexed": true,
          "name": "newMasterMinter",
          "type": "address"
        }
      ],
      "name": "MasterMinterChanged",
      "type": "event"
    },
    {
      "anonymous": false,
      "inputs": [
        {
          "indexed": true,
          "name": "_account",
          "type": "address"
        }
      ],
      "name": "Blacklisted",
      "type": "event"
    },
    {
      "anonymous": false,
      "inputs": [
        {
          "indexed": true,
          "name": "_account",
          "type": "address"
        }
      ],
      "name": "UnBlacklisted",
      "type": "event"
    },
    {
      "anonymous": false,
      "inputs": [
        {
          "indexed": true,
          "name": "newBlacklister",
          "type": "address"
        }
      ],
      "name": "BlacklisterChanged",
      "type": "event"
    },
    {
      "anonymous": false,
      "inputs": [],
      "name": "Pause",
      "type": "event"
    },
    {
      "anonymous": false,
      "inputs": [],
      "name": "Unpause",
      "type": "event"
    },
    {
      "anonymous": false,
      "inputs": [
        {
          "indexed": true,
          "name": "newAddress",
          "type": "address"
        }
      ],
      "name": "PauserChanged",
      "type": "event"
    },
    {
      "anonymous": false,
      "inputs": [
        {
          "indexed": false,
          "name": "previousOwner",
          "type": "address"
        },
        {
          "indexed": false,
          "name": "newOwner",
          "type": "address"
        }
      ],
      "name": "OwnershipTransferred",
      "type": "event"
    },
    {
      "anonymous": false,
      "inputs": [
        {
          "indexed": true,
          "name": "from",
          "type": "address"
        },
        {
          "indexed": true,
          "name": "to",
          "type": "address"
        },
        {
          "indexed": false,
          "name": "value",
          "type": "uint256"
        }
      ],
      "name": "Transfer",
      "type": "event"
    },
    {
      "anonymous": false,
      "inputs": [
        {
          "indexed": true,
          "name": "owner",
          "type": "address"
        },
        {
          "indexed": true,
          "name": "spender",
          "type": "address"
        },
        {
          "indexed": false,
          "name": "value",
          "type": "uint256"
        }
      ],
      "name": "Approval",
      "type": "event"
    },
    {
      "constant": false,
      "inputs": [
        {
          "name": "_name",
          "type": "string"
        },
        {
          "name": "_symbol",
          "type": "string"
        },
        {
          "name": "_currency",
          "type": "string"
        },
        {
          "name": "_decimals",
          "type": "uint8"
        },
        {
          "name": "_masterMinter",
          "type": "address"
        },
        {
          "name": "_pauser",
          "type": "address"
        },
        {
          "name": "_blacklister",
          "type": "address"
        },
        {
          "name": "_owner",
          "type": "address"
        }
      ],
      "name": "initialize",
      "outputs": [],
      "payable": false,
      "stateMutability": "nonpayable",
      "type": "function"
    },
    {
      "constant": false,
      "inputs": [
        {
          "name": "_to",
          "type": "address"
        },
        {
          "name": "_amount",
          "type": "uint256"
        }
      ],
      "name": "mint",
      "outputs": [
        {
          "name": "",
          "type": "bool"
        }
      ],
      "payable": false,
      "stateMutability": "nonpayable",
      "type": "function"
    },
    {
      "constant": true,
      "inputs": [
        {
          "name": "minter",
          "type": "address"
        }
      ],
      "name": "minterAllowance",
      "outputs": [
        {
          "name": "",
          "type": "uint256"
        }
      ],
      "payable": false,
      "stateMutability": "view",
      "type": "function"
    },
    {
      "constant": true,
      "inputs": [
        {
          "name": "account",
          "type": "address"
        }
      ],
      "name": "isMinter",
      "outputs": [
        {
          "name": "",
          "type": "bool"
        }
      ],
      "payable": false,
      "stateMutability": "view",
      "type": "function"
    },
    {
      "constant": true,
      "inputs": [],
      "name": "totalSupply",
      "outputs": [
        {
          "name": "",
          "type": "uint256"
        }
      ],
      "payable": false,
      "stateMutability": "view",
      "type": "function"
    },
    {
      "constant": true,
      "inputs": [
        {
          "name": "account",
          "type": "address"
        }
      ],
      "name": "balanceOf",
      "outputs": [
        {
          "name": "",
          "type": "uint256"
        }
      ],
      "payable": false,
      "stateMutability": "view",
      "type": "function"
    },
    {
      "constant": false,
      "inputs": [
        {
          "name": "_from",
          "type": "address"
        },
        {
          "name": "_to",
          "type": "address"
        },
        {
          "name": "_value",
          "type": "uint256"
        }
      ],
      "name": "transferFrom",
      "outputs": [
        {
          "name": "",
          "type": "bool"
        }
      ],
      "payable": false,
      "stateMutability": "nonpayable",
      "type": "function"
    },
    {
      "constant": false,
      "inputs": [
        {
          "name": "_to",
          "type": "address"
        },
        {
          "name": "_value",
          "type": "uint256"
        }
      ],
      "name": "transfer",
      "outputs": [
        {
          "name": "",
          "type": "bool"
        }
      ],
      "payable": false,
      "stateMutability": "nonpayable",
      "type": "function"
    },
    {
      "constant": false,
      "inputs": [
        {
          "name": "minter",
          "type": "address"
        },
        {
          "name": "minterAllowedAmount",
          "type": "uint256"
        }
      ],
      "name": "configureMinter",
      "outputs": [
        {
          "name": "",
          "type": "bool"
        }
      ],
      "payable": false,
      "stateMutability": "nonpayable",
      "type": "function"
    },
    {
      "constant": false,
      "inputs": [
        {
          "name": "minter",
          "type": "address"
        }
      ],
      "name": "removeMinter",
      "outputs": [
        {
          "name": "",
          "type": "bool"
        }
      ],
      "payable": false,
      "stateMutability": "nonpayable",
      "type": "function"
    },
    {
      "constant": false,
      "inputs": [
        {
          "name": "_amount",
          "type": "uint256"
        }
      ],
      "name": "burn",
      "outputs": [],
      "payable": false,
      "stateMutability": "nonpayable",
      "type": "function"
    },
    {
      "constant": false,
      "inputs": [
        {
          "name": "_newMasterMinter",
          "type": "address"
        }
      ],
      "name": "updateMasterMinter",
      "outputs": [],
      "payable": false,
      "stateMutability": "nonpayable",
      "type": "function"
    }
  ],
  "bytecode": "0x60806040526004805460a060020a60ff02191690556000600e5561002b33640100000000610030810204565b610052565b60008054600160a060020a031916600160a060020a0392909216919091179055565b611649806100616000396000f3006080604052600436106101745763ffffffff7c010000000000000000000000000000000000000000000000000000000060003504166306fdde03811461017957806318160ddd146102035780631a8952661461022a57806323b872dd1461024d5780633092afd51461028b578063313ce567146102ac5780633357162b146102d757806335d99f35146103d65780633f4ba83a1461040757806340c10f191461041c57806342966c68146104405780634e44d95614610458578063554bab3c1461047c5780635c975abb1461049d57806370a08231146104b25780638456cb59146104d35780638a6db9c3146104e85780638da5cb5b1461050957806395d89b411461051e5780639fd0506d14610533578063a9059cbb14610548578063aa20e1e41461056c578063aa271e1a1461058d578063ad38bf22146105ae578063bd102430146105cf578063e5a6b10f146105e4578063f2fde38b146105f9578063f9f92be41461061a578063fe575a871461063b575b600080fd5b34801561018557600080fd5b5061018e61065c565b6040805160208082528351818301528351919283929083019185019080838360005b838110156101c85781810151838201526020016101b0565b50505050905090810190601f1680156101f55780820380516001836020036101000a031916815260200191505b509250505060405180910390f35b34801561020f57600080fd5b506102186106ea565b60408051918252519081900360200190f35b34801561023657600080fd5b5061024b600160a060020a03600435166106f1565b005b34801561025957600080fd5b50610277600160a060020a036004358116906024351660443561077b565b604080519115158252519081900360200190f35b34801561029757600080fd5b50610277600160a060020a036004351661096a565b3480156102b857600080fd5b506102c1610a09565b6040805160ff9092168252519081900360200190f35b3480156102e357600080fd5b506040805160206004803580820135601f810184900484028501840190955284845261024b94369492936024939284019190819084018382808284375050604080516020601f89358b018035918201839004830284018301909452808352979a99988101979196509182019450925082915084018382808284375050604080516020601f89358b018035918201839004830284018301909452808352979a9998810197919650918201945092508291508401838280828437509497505060ff853516955050600160a060020a03602085013581169460408101358216945060608101358216935060800135169050610a12565b3480156103e257600080fd5b506103eb610b66565b60408051600160a060020a039092168252519081900360200190f35b34801561041357600080fd5b5061024b610b75565b34801561042857600080fd5b50610277600160a060020a0360043516602435610bf0565b34801561044c57600080fd5b5061024b600435610da7565b34801561046457600080fd5b50610277600160a060020a0360043516602435610ec3565b34801561048857600080fd5b5061024b600160a060020a0360043516610f5f565b3480156104a957600080fd5b50610277610fed565b3480156104be57600080fd5b50610218600160a060020a0360043516610ffd565b3480156104df57600080fd5b5061024b611018565b3480156104f457600080fd5b50610218600160a060020a0360043516611095565b34801561051557600080fd5b506103eb6110b0565b34801561052a57600080fd5b5061018e6110bf565b34801561053f57600080fd5b506103eb61111a565b34801561055457600080fd5b50610277600160a060020a0360043516602435611129565b34801561057857600080fd5b5061024b600160a060020a0360043516611259565b34801561059957600080fd5b50610277600160a060020a03600435166112e7565b3480156105ba57600080fd5b5061024b600160a060020a0360043516611305565b3480156105db57600080fd5b506103eb611393565b3480156105f057600080fd5b5061018e6113a2565b34801561060557600080fd5b5061024b600160a060020a03600435166113fd565b34801561062657600080fd5b5061024b600160a060020a0360043516611485565b34801561064757600080fd5b50610277600160a060020a03600435166114e8565b6007805460408051602060026001851615610100026000190190941693909304601f810184900484028201840190925281815292918301828280156106e25780601f106106b7576101008083540402835291602001916106e2565b820191906000526020600020905b8154815290600101906020018083116106c557829003601f168201915b505050505081565b600e545b90565b600554600160a060020a0316331461070857600080fd5b600160a060020a03811660009081526006602052604090205460ff16151560011461073257600080fd5b600160a060020a038116600081815260066020526040808220805460ff19169055517f117e3210bb9aa7d9baff172026820255c6f6c30ba8999d1c2fd88e2848137c4e9190a250565b60045460009060a060020a900460ff161561079557600080fd5b600160a060020a038316600090815260066020526040902054839060ff16156107bd57600080fd5b3360008181526006602052604090205460ff16156107da57600080fd5b600160a060020a038616600090815260066020526040902054869060ff161561080257600080fd5b600160a060020a038616151561081757600080fd5b600160a060020a0387166000908152600c602052604090205485111561083c57600080fd5b600160a060020a0387166000908152600d6020908152604080832033845290915290205485111561086c57600080fd5b600160a060020a0387166000908152600c6020526040902054610895908663ffffffff61150616565b600160a060020a038089166000908152600c602052604080822093909355908816815220546108ca908663ffffffff61151d16565b600160a060020a038088166000908152600c6020908152604080832094909455918a168152600d8252828120338252909152205461090e908663ffffffff61150616565b600160a060020a038089166000818152600d602090815260408083203384528252918290209490945580518981529051928a169391926000805160206115fe833981519152929181900390910190a35060019695505050505050565b600b54600090600160a060020a0316331461098457600080fd5b600160a060020a0382166000908152600f602052604090205460ff1615156001146109ae57600080fd5b600160a060020a0382166000818152600f60209081526040808320805460ff191690556010909152808220829055517fe94479a9f7e1952cc78f2d6baab678adc1b772d936c6583def489e524cb666929190a2506001919050565b60095460ff1681565b610a1a6110b0565b600160a060020a03163314610a2e57600080fd5b600b5460a060020a900460ff1615610a4557600080fd5b600160a060020a0384161515610a5a57600080fd5b600160a060020a0383161515610a6f57600080fd5b600160a060020a0382161515610a8457600080fd5b600160a060020a0381161515610a9957600080fd5b8751610aac9060079060208b0190611565565b508651610ac09060089060208a0190611565565b508551610ad490600a906020890190611565565b506009805460ff191660ff8716179055600b805473ffffffffffffffffffffffffffffffffffffffff19908116600160a060020a038781169190911790925560048054821686841617905560058054909116918416919091179055610b3881611536565b5050600b805474ff0000000000000000000000000000000000000000191660a060020a179055505050505050565b600b54600160a060020a031681565b600454600160a060020a03163314610b8c57600080fd5b60045460a060020a900460ff161515600114610ba757600080fd5b6004805474ff0000000000000000000000000000000000000000191690556040517f7805862f689e2f13df9f062ff482ad3ad112aca9e0847911ed832e158c525b3390600090a1565b600454600090819060a060020a900460ff1615610c0c57600080fd5b336000908152600f602052604090205460ff161515600114610c2d57600080fd5b3360008181526006602052604090205460ff1615610c4a57600080fd5b600160a060020a038516600090815260066020526040902054859060ff1615610c7257600080fd5b600160a060020a0386161515610c8757600080fd5b60008511610c9457600080fd5b33600090815260106020526040902054925082851115610cb357600080fd5b600e54610cc6908663ffffffff61151d16565b600e55600160a060020a0386166000908152600c6020526040902054610cf2908663ffffffff61151d16565b600160a060020a0387166000908152600c6020526040902055610d1b838663ffffffff61150616565b336000818152601060209081526040918290209390935580518881529051600160a060020a038a16937fab8530f87dc9b59234c4623bf917212bb2536d647574c8e7e5da92c2ede0c9f8928290030190a3604080518681529051600160a060020a038816916000916000805160206115fe8339815191529181900360200190a350600195945050505050565b60045460009060a060020a900460ff1615610dc157600080fd5b336000908152600f602052604090205460ff161515600114610de257600080fd5b3360008181526006602052604090205460ff1615610dff57600080fd5b336000908152600c602052604081205492508311610e1c57600080fd5b82821015610e2957600080fd5b600e54610e3c908463ffffffff61150616565b600e55610e4f828463ffffffff61150616565b336000818152600c6020908152604091829020939093558051868152905191927fcc16f5dbb4873280815c1ee09dbd06736cffcc184412cf7a71a0fdb75d397ca592918290030190a260408051848152905160009133916000805160206115fe8339815191529181900360200190a3505050565b60045460009060a060020a900460ff1615610edd57600080fd5b600b54600160a060020a03163314610ef457600080fd5b600160a060020a0383166000818152600f60209081526040808320805460ff191660011790556010825291829020859055815185815291517f46980fca912ef9bcdbd36877427b6b90e860769f604e89c0e67720cece530d209281900390910190a250600192915050565b610f676110b0565b600160a060020a03163314610f7b57600080fd5b600160a060020a0381161515610f9057600080fd5b6004805473ffffffffffffffffffffffffffffffffffffffff1916600160a060020a0383811691909117918290556040519116907fb80482a293ca2e013eda8683c9bd7fc8347cfdaeea5ede58cba46df502c2a60490600090a250565b60045460a060020a900460ff1681565b600160a060020a03166000908152600c602052604090205490565b600454600160a060020a0316331461102f57600080fd5b60045460a060020a900460ff161561104657600080fd5b6004805474ff0000000000000000000000000000000000000000191660a060020a1790556040517f6985a02210a168e66602d3235cb6db0e70f92b3ba4d376a33c0f3d9434bff62590600090a1565b600160a060020a031660009081526010602052604090205490565b600054600160a060020a031690565b6008805460408051602060026001851615610100026000190190941693909304601f810184900484028201840190925281815292918301828280156106e25780601f106106b7576101008083540402835291602001916106e2565b600454600160a060020a031681565b60045460009060a060020a900460ff161561114357600080fd5b3360008181526006602052604090205460ff161561116057600080fd5b600160a060020a038416600090815260066020526040902054849060ff161561118857600080fd5b600160a060020a038516151561119d57600080fd5b336000908152600c60205260409020548411156111b957600080fd5b336000908152600c60205260409020546111d9908563ffffffff61150616565b336000908152600c602052604080822092909255600160a060020a0387168152205461120b908563ffffffff61151d16565b600160a060020a0386166000818152600c60209081526040918290209390935580518781529051919233926000805160206115fe8339815191529281900390910190a3506001949350505050565b6112616110b0565b600160a060020a0316331461127557600080fd5b600160a060020a038116151561128a57600080fd5b600b805473ffffffffffffffffffffffffffffffffffffffff1916600160a060020a0383811691909117918290556040519116907fdb66dfa9c6b8f5226fe9aac7e51897ae8ee94ac31dc70bb6c9900b2574b707e690600090a250565b600160a060020a03166000908152600f602052604090205460ff1690565b61130d6110b0565b600160a060020a0316331461132157600080fd5b600160a060020a038116151561133657600080fd5b6005805473ffffffffffffffffffffffffffffffffffffffff1916600160a060020a0383811691909117918290556040519116907fc67398012c111ce95ecb7429b933096c977380ee6c421175a71a4a4c6c88c06e90600090a250565b600554600160a060020a031681565b600a805460408051602060026001851615610100026000190190941693909304601f810184900484028201840190925281815292918301828280156106e25780601f106106b7576101008083540402835291602001916106e2565b6114056110b0565b600160a060020a0316331461141957600080fd5b600160a060020a038116151561142e57600080fd5b7f8be0079c531659141344cd1fd0a4f28419497f9722a3daafe3b4186f6b6457e06114576110b0565b60408051600160a060020a03928316815291841660208301528051918290030190a161148281611536565b50565b600554600160a060020a0316331461149c57600080fd5b600160a060020a038116600081815260066020526040808220805460ff19166001179055517fffa4e6181777692565cf28528fc88fd1516ea86b56da075235fa575af6a4b8559190a250565b600160a060020a031660009081526006602052604090205460ff1690565b6000808383111561151657600080fd5b5050900390565b60008282018381101561152f57600080fd5b9392505050565b6000805473ffffffffffffffffffffffffffffffffffffffff1916600160a060020a0392909216919091179055565b828054600181600116156101000203166002900490600052602060002090601f016020900481019282601f106115a657805160ff19168380011785556115d3565b828001600101855582156115d3579182015b828111156115d35782518255916020019190600101906115b8565b506115df9291506115e3565b5090565b6106ee91905b808211156115df57600081556001016115e95600ddf252ad1be2c89b69c2b068fc378daa952ba7f163c4a11628f55a4df523b3efa165627a7a7230582013ba47d952ca7e7d33613aeec4efa31f04222113a6dfaa5a85ae71d96cdae1140029",
  "source": "/**\n* Copyright CENTRE SECZ 2018\n*\n* Permission is hereby granted, free of charge, to any person obtaining a copy \n* of this software and associated documentation files (the \"Software\"), to deal \n* in the Software without restriction, including without limitation the rights \n* to use, copy, modify, merge, publish, distribute, sublicense, and/or sell \n* copies of the Software, and to permit persons to whom the Software is furnished to \n* do so, subject to the following conditions:\n*\n* The above copyright notice and this permission notice shall be included in all \n* copies or substantial portions of the Software.\n*\n* THE SOFTWARE IS PROVIDED \"AS IS\", WITHOUT WARRANTY OF ANY KIND, EXPRESS OR \n* IMPLIED, INCLUDING BUT NOT LIMITED TO THE WARRANTIES OF MERCHANTABILITY, \n* FITNESS FOR A PARTICULAR PURPOSE AND NONINFRINGEMENT. IN NO EVENT SHALL THE \n* AUTHORS OR COPYRIGHT HOLDERS BE LIABLE FOR ANY CLAIM, DAMAGES OR OTHER LIABILITY,\n* WHETHER IN AN ACTION OF CONTRACT, TORT OR OTHERWISE, ARISING FROM, OUT OF OR IN \n* CONNECTION WITH THE SOFTWARE OR THE USE OR OTHER DEALINGS IN THE SOFTWARE.\n*/\n\npragma solidity 0.4.24;\n\nimport './ERC20.sol';\nimport './SafeMath.sol';\n\nimport './Ownable.sol';\nimport './Blacklistable.sol';\nimport \"./Pausable.sol\";\n\n/**\n * @title FiatToken\n * @dev ERC20 Token backed by fiat reserves\n */\ncontract FiatTokenV1 is Ownable, ERC20, Pausable, Blacklistable {\n    using SafeMath for uint256;\n\n    string public name;\n    string public symbol;\n    uint8 public decimals;\n    string public currency;\n    address public masterMinter;\n    bool internal initialized;\n\n    mapping(address => uint256) internal balances;\n    mapping(address => mapping(address => uint256)) internal allowed;\n    uint256 internal totalSupply_ = 0;\n    mapping(address => bool) internal minters;\n    mapping(address => uint256) internal minterAllowed;\n\n    event Mint(address indexed minter, address indexed to, uint256 amount);\n    event Burn(address indexed burner, uint256 amount);\n    event MinterConfigured(address indexed minter, uint256 minterAllowedAmount);\n    event MinterRemoved(address indexed oldMinter);\n    event MasterMinterChanged(address indexed newMasterMinter);\n\n    function initialize (\n        string _name,\n        string _symbol,\n        string _currency,\n        uint8 _decimals,\n        address _masterMinter,\n        address _pauser,\n        address _blacklister,\n        address _owner\n    ) onlyOwner public {\n        require(!initialized);\n        require(_masterMinter != address(0));\n        require(_pauser != address(0));\n        require(_blacklister != address(0));\n        require(_owner != address(0));\n\n        name = _name;\n        symbol = _symbol;\n        currency = _currency;\n        decimals = _decimals;\n        masterMinter = _masterMinter;\n        pauser = _pauser;\n        blacklister = _blacklister;\n        setOwner(_owner);\n        initialized = true;\n    }\n\n    /**\n     * @dev Throws if called by any account other than a minter\n    */\n    modifier onlyMinters() {\n        require(minters[msg.sender] == true);\n        _;\n    }\n\n    /**\n     * @dev Function to mint tokens\n     * @param _to The address that will receive the minted tokens.\n     * @param _amount The amount of tokens to mint. Must be less than or equal to the minterAllowance of the caller.\n     * @return A boolean that indicates if the operation was successful.\n    */\n    function mint(address _to, uint256 _amount) whenNotPaused onlyMinters notBlacklisted(msg.sender) notBlacklisted(_to) public returns (bool) {\n        require(_to != address(0));\n        require(_amount > 0);\n\n        uint256 mintingAllowedAmount = minterAllowed[msg.sender];\n        require(_amount <= mintingAllowedAmount);\n\n        totalSupply_ = totalSupply_.add(_amount);\n        balances[_to] = balances[_to].add(_amount);\n        minterAllowed[msg.sender] = mintingAllowedAmount.sub(_amount);\n        emit Mint(msg.sender, _to, _amount);\n        emit Transfer(0x0, _to, _amount);\n        return true;\n    }\n\n    /**\n     * @dev Throws if called by any account other than the masterMinter\n    */\n    modifier onlyMasterMinter() {\n        require(msg.sender == masterMinter);\n        _;\n    }\n\n    /**\n     * @dev Get minter allowance for an account\n     * @param minter The address of the minter\n    */\n    function minterAllowance(address minter) public view returns (uint256) {\n        return minterAllowed[minter];\n    }\n\n    /**\n     * @dev Checks if account is a minter\n     * @param account The address to check    \n    */\n    function isMinter(address account) public view returns (bool) {\n        return minters[account];\n    }\n\n    /**\n     * @dev Get totalSupply of token\n    */\n    function totalSupply() public view returns (uint256) {\n        return totalSupply_;\n    }\n\n    /**\n     * @dev Get token balance of an account\n     * @param account address The account\n    */\n    function balanceOf(address account) public view returns (uint256) {\n        return balances[account];\n    }\n\n    /**\n     * @dev Transfer tokens from one address to another.\n     * @param _from address The address which you want to send tokens from\n     * @param _to address The address which you want to transfer to\n     * @param _value uint256 the amount of tokens to be transferred\n     * @return bool success\n    */\n    function transferFrom(address _from, address _to, uint256 _value) whenNotPaused notBlacklisted(_to) notBlacklisted(msg.sender) notBlacklisted(_from) public returns (bool) {\n        require(_to != address(0));\n        require(_value <= balances[_from]);\n        require(_value <= allowed[_from][msg.sender]);\n\n        balances[_from] = balances[_from].sub(_value);\n        balances[_to] = balances[_to].add(_value);\n        allowed[_from][msg.sender] = allowed[_from][msg.sender].sub(_value);\n        emit Transfer(_from, _to, _value);\n        return true;\n    }\n\n    /**\n     * @dev transfer token for a specified address\n     * @param _to The address to transfer to.\n     * @param _value The amount to be transferred.\n     * @return bool success\n    */\n    function transfer(address _to, uint256 _value) whenNotPaused notBlacklisted(msg.sender) notBlacklisted(_to) public returns (bool) {\n        require(_to != address(0));\n        require(_value <= balances[msg.sender]);\n\n        balances[msg.sender] = balances[msg.sender].sub(_value);\n        balances[_to] = balances[_to].add(_value);\n        emit Transfer(msg.sender, _to, _value);\n        return true;\n    }\n\n    /**\n     * @dev Function to add/update a new minter\n     * @param minter The address of the minter\n     * @param minterAllowedAmount The minting amount allowed for the minter\n     * @return True if the operation was successful.\n    */\n    function configureMinter(address minter, uint256 minterAllowedAmount) whenNotPaused onlyMasterMinter public returns (bool) {\n        minters[minter] = true;\n        minterAllowed[minter] = minterAllowedAmount;\n        emit MinterConfigured(minter, minterAllowedAmount);\n        return true;\n    }\n\n    /**\n     * @dev Function to remove a minter\n     * @param minter The address of the minter to remove\n     * @return True if the operation was successful.\n    */\n    function removeMinter(address minter) onlyMasterMinter public returns (bool) {\n        require(minters[minter] == true);\n        minters[minter] = false;\n        minterAllowed[minter] = 0;\n        emit MinterRemoved(minter);\n        return true;\n    }\n\n    /**\n     * @dev allows a minter to burn some of its own tokens\n     * Validates that caller is a minter and that sender is not blacklisted\n     * amount is less than or equal to the minter's account balance\n     * @param _amount uint256 the amount of tokens to be burned\n    */\n    function burn(uint256 _amount) whenNotPaused onlyMinters notBlacklisted(msg.sender) public {\n        uint256 balance = balances[msg.sender];\n        require(_amount > 0);\n        require(balance >= _amount);\n\n        totalSupply_ = totalSupply_.sub(_amount);\n        balances[msg.sender] = balance.sub(_amount);\n        emit Burn(msg.sender, _amount);\n        emit Transfer(msg.sender, address(0), _amount);\n    }\n\n    function updateMasterMinter(address _newMasterMinter) onlyOwner public {\n        require(_newMasterMinter != address(0));\n        masterMinter = _newMasterMinter;\n        emit MasterMinterChanged(masterMinter);\n    }\n}\n",
  "sourcePath": "/home/abhi/Projects/ntokens-audit/contracts/FiatTokenV1.sol",
  "compiler": {
    "name": "solc",
    "version": "0.4.24+commit.e67f0147.Emscripten.clang"
  },
  "schemaVersion": "2.0.1",
  "updatedAt": "2019-10-19T07:16:31.918Z"
}