{
  "contractName": "Pausable",
  "abi": [
    {
      "constant": true,
      "inputs": [],
      "name": "paused",
      "outputs": [
        {
          "name": "",
          "type": "bool"
        }
      ],
      "payable": false,
      "stateMutability": "view",
      "type": "function"
    },
    {
      "constant": true,
      "inputs": [],
      "name": "owner",
      "outputs": [
        {
          "name": "",
          "type": "address"
        }
      ],
      "payable": false,
      "stateMutability": "view",
      "type": "function"
    },
    {
      "constant": true,
      "inputs": [],
      "name": "pauser",
      "outputs": [
        {
          "name": "",
          "type": "address"
        }
      ],
      "payable": false,
      "stateMutability": "view",
      "type": "function"
    },
    {
      "constant": false,
      "inputs": [
        {
          "name": "newOwner",
          "type": "address"
        }
      ],
      "name": "transferOwnership",
      "outputs": [],
      "payable": false,
      "stateMutability": "nonpayable",
      "type": "function"
    },
    {
      "anonymous": false,
      "inputs": [],
      "name": "Pause",
      "type": "event"
    },
    {
      "anonymous": false,
      "inputs": [],
      "name": "Unpause",
      "type": "event"
    },
    {
      "anonymous": false,
      "inputs": [
        {
          "indexed": true,
          "name": "newAddress",
          "type": "address"
        }
      ],
      "name": "PauserChanged",
      "type": "event"
    },
    {
      "anonymous": false,
      "inputs": [
        {
          "indexed": false,
          "name": "previousOwner",
          "type": "address"
        },
        {
          "indexed": false,
          "name": "newOwner",
          "type": "address"
        }
      ],
      "name": "OwnershipTransferred",
      "type": "event"
    },
    {
      "constant": false,
      "inputs": [],
      "name": "pause",
      "outputs": [],
      "payable": false,
      "stateMutability": "nonpayable",
      "type": "function"
    },
    {
      "constant": false,
      "inputs": [],
      "name": "unpause",
      "outputs": [],
      "payable": false,
      "stateMutability": "nonpayable",
      "type": "function"
    },
    {
      "constant": false,
      "inputs": [
        {
          "name": "_newPauser",
          "type": "address"
        }
      ],
      "name": "updatePauser",
      "outputs": [],
      "payable": false,
      "stateMutability": "nonpayable",
      "type": "function"
    }
  ],
  "bytecode": "0x60806040526001805460a060020a60ff02191690556100263364010000000061002b810204565b61004d565b60008054600160a060020a031916600160a060020a0392909216919091179055565b61043e8061005c6000396000f3006080604052600436106100825763ffffffff7c01000000000000000000000000000000000000000000000000000000006000350416633f4ba83a8114610087578063554bab3c1461009e5780635c975abb146100bf5780638456cb59146100e85780638da5cb5b146100fd5780639fd0506d1461012e578063f2fde38b14610143575b600080fd5b34801561009357600080fd5b5061009c610164565b005b3480156100aa57600080fd5b5061009c600160a060020a03600435166101ef565b3480156100cb57600080fd5b506100d461027d565b604080519115158252519081900360200190f35b3480156100f457600080fd5b5061009c61029e565b34801561010957600080fd5b5061011261033d565b60408051600160a060020a039092168252519081900360200190f35b34801561013a57600080fd5b5061011261034c565b34801561014f57600080fd5b5061009c600160a060020a036004351661035b565b600154600160a060020a0316331461017b57600080fd5b6001805474010000000000000000000000000000000000000000900460ff161515146101a657600080fd5b6001805474ff0000000000000000000000000000000000000000191690556040517f7805862f689e2f13df9f062ff482ad3ad112aca9e0847911ed832e158c525b3390600090a1565b6101f761033d565b600160a060020a0316331461020b57600080fd5b600160a060020a038116151561022057600080fd5b6001805473ffffffffffffffffffffffffffffffffffffffff1916600160a060020a0383811691909117918290556040519116907fb80482a293ca2e013eda8683c9bd7fc8347cfdaeea5ede58cba46df502c2a60490600090a250565b60015474010000000000000000000000000000000000000000900460ff1681565b600154600160a060020a031633146102b557600080fd5b60015474010000000000000000000000000000000000000000900460ff16156102dd57600080fd5b6001805474ff00000000000000000000000000000000000000001916740100000000000000000000000000000000000000001790556040517f6985a02210a168e66602d3235cb6db0e70f92b3ba4d376a33c0f3d9434bff62590600090a1565b600054600160a060020a031690565b600154600160a060020a031681565b61036361033d565b600160a060020a0316331461037757600080fd5b600160a060020a038116151561038c57600080fd5b7f8be0079c531659141344cd1fd0a4f28419497f9722a3daafe3b4186f6b6457e06103b561033d565b60408051600160a060020a03928316815291841660208301528051918290030190a16103e0816103e3565b50565b6000805473ffffffffffffffffffffffffffffffffffffffff1916600160a060020a03929092169190911790555600a165627a7a72305820f597520b25f6e9f93fe951a1f864fe94fdd471ab5ac4f6a7efaa9c7d4f0ccb7c0029",
  "source": "/**\n* Copyright CENTRE SECZ 2018\n*\n* Permission is hereby granted, free of charge, to any person obtaining a copy \n* of this software and associated documentation files (the \"Software\"), to deal \n* in the Software without restriction, including without limitation the rights \n* to use, copy, modify, merge, publish, distribute, sublicense, and/or sell \n* copies of the Software, and to permit persons to whom the Software is furnished to \n* do so, subject to the following conditions:\n*\n* The above copyright notice and this permission notice shall be included in all \n* copies or substantial portions of the Software.\n*\n* THE SOFTWARE IS PROVIDED \"AS IS\", WITHOUT WARRANTY OF ANY KIND, EXPRESS OR \n* IMPLIED, INCLUDING BUT NOT LIMITED TO THE WARRANTIES OF MERCHANTABILITY, \n* FITNESS FOR A PARTICULAR PURPOSE AND NONINFRINGEMENT. IN NO EVENT SHALL THE \n* AUTHORS OR COPYRIGHT HOLDERS BE LIABLE FOR ANY CLAIM, DAMAGES OR OTHER LIABILITY,\n* WHETHER IN AN ACTION OF CONTRACT, TORT OR OTHERWISE, ARISING FROM, OUT OF OR IN \n* CONNECTION WITH THE SOFTWARE OR THE USE OR OTHER DEALINGS IN THE SOFTWARE.\n*/\n\npragma solidity 0.4.24;\n\nimport \"./Ownable.sol\";\n\n/**\n * @title Pausable\n * @dev Base contract which allows children to implement an emergency stop mechanism.\n * Based on openzeppelin tag v1.10.0 commit: feb665136c0dae9912e08397c1a21c4af3651ef3\n * Modifications:\n * 1) Added pauser role, switched pause/unpause to be onlyPauser (6/14/2018)\n * 2) Removed whenNotPause/whenPaused from pause/unpause (6/14/2018)\n * 3) Removed whenPaused (6/14/2018)\n * 4) Switches ownable library to use zeppelinos (7/12/18)\n * 5) Remove constructor (7/13/18)\n */\ncontract Pausable is Ownable {\n  event Pause();\n  event Unpause();\n  event PauserChanged(address indexed newAddress);\n\n\n  address public pauser;\n  bool public paused = false;\n\n  /**\n   * @dev Modifier to make a function callable only when the contract is not paused.\n   */\n  modifier whenNotPaused() {\n    require(!paused);\n    _;\n  }\n\n  /**\n   * @dev throws if called by any account other than the pauser\n   */\n  modifier onlyPauser() {\n    require(msg.sender == pauser);\n    _;\n  }\n\n  /**\n   * @dev called by the owner to pause, triggers stopped state\n   */\n  function pause() onlyPauser public {\n    require(paused == false);\n    paused = true;\n    emit Pause();\n  }\n\n  /**\n   * @dev called by the owner to unpause, returns to normal state\n   */\n  function unpause() onlyPauser public {\n    require(paused == true);\n    paused = false;\n    emit Unpause();\n  }\n\n  /**\n   * @dev update the pauser role\n   */\n  function updatePauser(address _newPauser) onlyOwner public {\n    require(_newPauser != address(0));\n    pauser = _newPauser;\n    emit PauserChanged(pauser);\n  }\n\n}\n",
  "sourcePath": "/home/abhi/Projects/ntokens-audit/contracts/Pausable.sol",
  "compiler": {
    "name": "solc",
    "version": "0.4.24+commit.e67f0147.Emscripten.clang"
  },
  "schemaVersion": "2.0.1",
  "updatedAt": "2019-10-19T07:16:31.820Z"
}